:020000040000FA
:080000008631252E00000000EE
:0C0C40008A01000000008A018200D82F09
:0E0C5200FB01FB0303190800FC01FC0303195E
:100C60002A2E00002E2EF0307605FA007A08230096
:100C700091007708FA007A08920015139517151657
:100C8000151555309600AA30960095140000000006
:100C90009516F8012030780203186B2E003085007D
:100CA0002030840005308407780A84070008930008
:100CB00020308400053084077808840700089400F9
:100CC00055309600AA309600951400000000910A55
:100CD0000230F8074A2E9512F0307605FA007A08AD
:100CE00091007708FA007A08920020002608230075
:100CF0009300200025082300940055309600AA3068
:100D000096009514000000001511080022000C1632
:100D10000C1129260C120C152926862E23001513DA
:100D20009517760891007708FA007A089200F80182
:100D3000203078020318080015140000000000306D
:100D40008500203084000530840778088407140863
:100D500080002030840005308407780A8407130857
:100D60008000910A0230F807982E7A082100A0002E
:100D70007B08A1007C08A2007D08A3007E08003C3F
:100D80000318D62E2308850022088400A20A03191E
:100D9000A30A0008FF002108850020088400A00A9B
:100DA0000319A10A7F088000FE03BE2E7A08A40062
:100DB0007B08A500080022000C12F8017A087802CE
:100DC0000318EA2E0C15292629260C112926292676
:100DD000F80ADE2E29262926DD2E0130F900F6013B
:100DE000F7018E260030FB006630FA000030FD006F
:100DF0002530FC000830FE00B52622000C160C152C
:100E0000F8014630780203181C2F2000911A092F90
:100E1000052F23001908FA000030FC002030FB00E9
:100E20007C0885007B08780784007A0880007A08AF
:100E3000FE3A031DF80A012FFA0122000C1EFA0ADD
:100E40007A180C167A1C0C1220002008F03A031DA8
:100E5000382FA108031D382F2208143A031D382FFC
:100E60002308143A031D382F6508F73A03193B2F5E
:100E70000230FA00DB262000A40803198626790830
:100E8000200024060319472F0330FA00DB26F90A55
:100E900079087F3C03184E2F0130F900F80120300B
:100EA00078020318782F0030850020308400053048
:100EB0008407780884070008FA00FA0DFA0DFA0D85
:100EC000FA0DFA0DFA0DFA0D8030FA052030840083
:100ED00005308407780A84077A088004203084006B
:100EE000053084077808840780360230F8074F2FD2
:100EF000F608031DA92FF708031DA92F0030FB00DA
:100F00006E30FA000030FD002530FC000830FE0095
:100F1000B5260030FB002530FA000030FD006630B9
:100F2000FC000830FE00B52633262030F6000630DF
:100F3000F7008E260030FB002730FA000030FD005D
:100F40006E30FC000830FE00B5263326F601F701AE
:100F5000B82F06307702031DAF2F20307602031C16
:100F6000B72FF71BB72F0430FA00DB26B82F332634
:100F70001030F6070318F70A002F7A302100990085
:100F8000EB308C00951322009D171D15B030230007
:100F90009D0008309F001F309B008C01083024000A
:100FA0008C00292620008C1DED268631202E08007D
:040FB0008031BD2FA0
:020000040001F9
:02000E00A4FF4D
:02001000FFDE11
:00000001FF
