:020000040000FA
:080000008631252E00000000EE
:0C0C40008A01000000008A018200FD2FE4
:0E0C52002000DB01DB0303190800DC01DC03DA
:100C600003192B2E00002F2EF03020005605DA003D
:100C70005A082300910020005708DA005A08230080
:100C80009200151395171516151555309600AA30B4
:100C9000960095140000000095162000D801203021
:100CA00058020318742E003085002030840005306F
:100CB0008407580A8407000823009300203084002A
:100CC000053084072000580884070008230094009A
:100CD00055309600AA309600951400000000910A45
:100CE00002302000D8074F2E23009512F03020004C
:100CF0005605DA005A082300910020005708DA0050
:100D00005A082300920020002608230093002000A8
:100D100025082300940055309600AA3096009514BB
:100D2000000000001511080022000C160C112926E5
:100D300022000C120C152926942E2300151395174A
:100D4000200056082300910020005708DA005A08B6
:100D5000230092002000D801203058020318080018
:100D600023001514000000000030850020308400AE
:100D700005308407200058088407230014088000E9
:100D800020308400053084072000580A840723009F
:100D900013088000910A02302000D807AC2E5A08B0
:100DA000DF005B08E0005C08E1005D08E2005E082F
:100DB000003C0318EF2E6208850061088400E10AF8
:100DC0000319E20A0008E300600885005F08840058
:100DD000DF0A0319E00A63088000DE03D72E5A08F1
:100DE000E3005B08E400080022000C122000D80198
:100DF0005A0858020318062F22000C152926292606
:100E000022000C1129262926D80AF82E292629265F
:100E1000F62E01302000D900D601D7019D260030E2
:100E2000DB004630DA000030DD002530DC00083021
:100E3000DE00CF2622000C160C152000D80126302B
:100E4000580203183A2F911A262F232F230019082E
:100E50002000DA000030DC002030DB005C08850078
:100E60005B08580784005A0880005A08FE3A031DA0
:100E7000D80A1F2FDA0122000C1A402F2000DA0AAC
:100E800020005A1C452F22000C1620005A184A2F09
:100E900022000C1220002008F03A031D5A2FA1084E
:100EA000031D5A2F2308143A031D5A2F4508F73AF9
:100EB00003195D2F0230DA00F4262000A40803197C
:100EC00094262000590824060319692F0330DA00FC
:100ED000F4262000D90A59087F3C0318712F0130ED
:100EE000D900D8012030580203189B2F003085000C
:100EF0002030840005308407580884070008DA0091
:100F0000DA0DDA0DDA0DDA0DDA0DDA0DDA0D8030E0
:100F1000DA052030840005308407580A84075A080F
:100F20008004203084000530840758088407803608
:100F30000230D807722FD608031DCE2FD708031D05
:100F4000CE2F0030DB004E30DA000030DD002530DF
:100F5000DC000830DE00CF260030DB002530DA0070
:100F60000030DD004630DC000830DE00CF263426BD
:100F700020302000D6000630D7009D260030DB0050
:100F80002730DA000030DD004E30DC000830DE00B3
:100F9000CF2634262000D601D701DD2F0630570298
:100FA000031DD42F20305602031CDC2FD71BDC2F4F
:100FB0000430DA00F426DD2F342610302000D60766
:100FC0000318D70A1D2F7A3021009900EB308C00CE
:100FD0009513843022009D00B03023009D0008301E
:100FE0009F001F309B008C01083024008C002926B4
:0E0FF0008C1D09278631202E08008031E32F4A
:020000040001F9
:02000E00A4FF4D
:02001000FFDE11
:00000001FF
