:020000040000FA
:080000008631252E00000000EE
:0C0C40008A01000000008A018200F92FE8
:0E0C5200FA08031D2D2E0800F93000000000E6
:100C60000000000000000000000000000000000084
:100C700000000000FF3E031D2E2E000000000000BB
:100C80000000000000000000000000000000000064
:100C900000000000FA0B2D2E0800F0307505F90059
:100CA0007908230091007608F9007908920015135D
:100CB00095171516151555309600AA3096009514FF
:100CC000000000009516F701203077020318852EEA
:100CD000003085002030840005308407770A8407BF
:100CE00000089300203084000530840777088407CB
:100CF0000008940055309600AA3096009514000024
:100D00000000910A0230F707642E9512F030750545
:100D1000F900790891007608F9007908920020001E
:100D20002608230093002000250823009400553056
:100D30009600AA30960095140000000015110800D6
:100D400022000C160C116430FA0029260C120C1526
:100D50006430FA002926A02E230015139517750874
:100D600091007608F90079089200F70120307702A7
:100D70000318080015140000000000308500203022
:100D80008400053084077708840714088000203029
:100D9000840005308407770A840713088000910ACD
:100DA0000230F707B62E7908FE007A08FF007B08AC
:100DB0002100A0007C08A1007D08003C0318F42E4F
:100DC0002108850020088400A00A0319A10A000850
:100DD000A2007F0885007E088400FE0A0319FF0A2E
:100DE00022088000FD03DC2E7908A2007A08A30007
:100DF000080022000C12F7017908770203180A2F65
:100E00000C15C830FA0029260C11C830FA00292622
:100E1000F70AFC2EFF30FA002926FB2E0130F800DD
:100E2000F501F601AC260030FA006530F90000301B
:100E3000FC002530FB000830FD00D32622000C16F4
:100E40000C15F701263077020318382F2000911A6D
:100E50002A2F262F0030FA002030F9007A0885006A
:100E6000790877078400230019088000F70A222FE9
:100E7000F90122000C1EF90A79180C16791C0C12C3
:100E800020002008F03A031D542FA108031D542F01
:100E900022087F3A031D542F2308143A031D542FB0
:100EA0004508F73A0319572F0230F900F9262000B8
:100EB000A4080319A0267808200024060319632F2C
:100EC0000330F900F926F80A78087F3C03186A2FE6
:100ED0000130F800F701203077020318942F00301A
:100EE00085002030840005308407770884070008D7
:100EF000F900F90DF90DF90DF90DF90DF90DF90DCF
:100F00008030F9052030840005308407770A840793
:100F1000790880042030840005308407770884072E
:100F200080360230F7076B2FF508031DC52FF60832
:100F3000031DC52F0030FA006D30F9000030FC00B1
:100F40002530FB000830FD00D3260030FA002530A4
:100F5000F9000030FC006530FB000830FD00D326AE
:100F60004D262030F5000630F600AC260030FA00A1
:100F70002730F9000030FC006D30FB000830FD0028
:100F8000D3264D26F501F601D42F06307602031D37
:100F9000CB2F20307502031CD32FF61BD32F043028
:100FA000F900F926D42F4D261030F5070318F60A5C
:100FB000212F7A302100990022009D171D15230052
:100FC0008C01EB3021008C00083024008C002100C3
:100FD0009513B03023009D0008309F001F309B0008
:100FE0000A30FA00292620008C1D0E278631202E7B
:060FF00008008031D92F3A
:020000040001F9
:02000E00A4FF4D
:02001000FFDE11
:00000001FF
