:020000040000FA
:080000008631252E00000000EE
:0C0C40008A01000000008A018200F92FE8
:0E0C52002000DB01DB0303190800DC01DC03DA
:100C600003192B2E00002F2EF03020005605DA003D
:100C70005A082300910020005708DA005A08230080
:100C80009200151395171516151555309600AA30B4
:100C9000960095140000000095162000D801203021
:100CA00058020318742E003085002030840005306F
:100CB0008407580A8407000823009300203084002A
:100CC000053084072000580884070008230094009A
:100CD00055309600AA309600951400000000910A45
:100CE00002302000D8074F2E23009512F03020004C
:100CF0005605DA005A082300910020005708DA0050
:100D00005A082300920020002608230093002000A8
:100D100025082300940055309600AA3096009514BB
:100D2000000000001511080022008C122926220064
:100D30008C162926942E230015139517200056088B
:100D40002300910020005708DA005A08230092007F
:100D50002000D80120305802031808002300151481
:100D6000000000000030850020308400053084073A
:100D700020005808840723001408800020308400D5
:100D8000053084072000580A8407230013088000D8
:100D9000910A02302000D807AA2E5A08DF005B080B
:100DA000E0005C08E1005D08E2005E08003C03181A
:100DB000ED2E6208850061088400E10A0319E20A49
:100DC0000008E300600885005F088400DF0A03195B
:100DD000E00A63088000DE03D52E5A08E3005B08B2
:100DE000E4000800D8015A0858020318012F220015
:100DF0008C162926292622008C1229262926D80A73
:100E0000F32E29262926F22E01302000D900D60102
:100E1000D7019B260030DB004630DA000030DD00D1
:100E20002530DC000830DE00CD2622008C162000A4
:100E3000D801263058020318342F911A202F1D2F65
:100E4000230019082000DA000030DC002030DB002D
:100E50005C0885005B08580784005A0880005A081F
:100E6000FE3A031DD80A192FDA0122008C1A3A2FF4
:100E70002000DA0A20005A1C3F2F22008C16200086
:100E80005A18442F22008C1220002008F03A031D2B
:100E9000542FA108031D542F2308223A031D542F59
:100EA0004508F73A0319572F0230DA00F2262000DE
:100EB000A408031994262000590824060319632F57
:100EC0000330DA00F2262000D90A59087F3C0318C3
:100ED0006B2F0130D900D801203058020318952F0C
:100EE00000308500203084000530840758088407CE
:100EF0000008DA00DA0DDA0DDA0DDA0DDA0DDA0DA6
:100F0000DA0D8030DA052030840005308407580A75
:100F100084075A088004203084000530840758086C
:100F2000840780360230D8076C2FD608031DC82FDF
:100F3000D708031DC82F0030DB004E30DA00003028
:100F4000DD002530DC000830DE00CD260030DB007F
:100F50002530DA000030DD004630DC000830DE00ED
:100F6000CD26342620302000D6000630D7009B2620
:100F70000030DB002730DA000030DD004E30DC00CE
:100F80000830DE00CD2634262000D601D701D72F29
:100F900006305702031DCE2F20305602031CD62FD9
:100FA000D71BD62F0430DA00F226D72F3426103084
:100FB0002000D6070318D70A172F7A30210099008E
:100FC000DE308C00951323008C01083024008C0047
:100FD00029268C19F62F8C19EE2FEB2FB030230019
:100FE0009D0008309F001F309B0004278631202E73
:060FF00008008031DD2F36
:020000040001F9
:02000E00A4FF4D
:02001000FFDE11
:00000001FF
