:020000040000FA
:080000009E31252E00000000D6
:0C3C40008A01000000008A018200DE2FD3
:0E3C5200FB01FB0303190800FC01FC0303192E
:103C60002A2E00002E2EE0307605FA007A08230076
:103C700091007708FA007A08920015139517151627
:103C8000151555309600AA309600951400000000D6
:103C90009516F8014030780203186B2E003085002D
:103CA0002030840005308407780A840700089300D8
:103CB00020308400053084077808840700089400C9
:103CC00055309600AA309600951400000000910A25
:103CD0000230F8074A2E9512E0307605FA007A088D
:103CE00091007708FA007A08920020002608230045
:103CF0009300200025082300940055309600AA3038
:103D000096009514000000001511080022008C1682
:103D10008C1229268C128C162926862E2300151328
:103D20009517760891007708FA007A089200F80152
:103D3000403078020318080015140000000000301D
:103D40008500203084000530840778088407140833
:103D500080002030840005308407780A8407130827
:103D60008000910A0230F807982E7A082100A000FE
:103D70007B08A1007C08A2007D08A3007E08003C0F
:103D80000318D62E2308850022088400A20A0319EE
:103D9000A30A0008FF002108850020088400A00A6B
:103DA0000319A10A7F088000FE03BE2E7A08A40032
:103DB0007B08A500080022008C12F8017A0878021E
:103DC0000318EA2E8C16292629268C122926292644
:103DD000F80ADE2E29262926DD2E0130F900F6010B
:103DE000F7018E260030FB006630FA000030FD003F
:103DF0002530FC000830FE00B52622008C168C16FB
:103E0000F8014630780203181C2F2000911A092F60
:103E1000052F23001908FA000030FC002030FB00B9
:103E20007C0885007B08780784007A0880007A087F
:103E3000FE3A031DF80A012FFA0122008C1EFA0A2D
:103E40007A188C167A1C8C1220002008F03A031D78
:103E5000382FA108031D382F22087F3A031D382F61
:103E60002308233A031D382F6508F73A03193B2F1F
:103E70000230FA00DB262000A408983103198626B8
:103E800079082000240698310319492F0330FA00DD
:103E9000DB26F90A79087F3C98310318512F01304D
:103EA000F900F8014030780203187B2F00308500BC
:103EB0002030840005308407780884070008FA0061
:103EC000FA0DFA0DFA0DFA0DFA0DFA0DFA0D803011
:103ED000FA052030840005308407780A84077A08C0
:103EE00080042030840005308407780884078036F9
:103EF0000230F807522FF608031DAC2FF708031DF8
:103F0000AC2F0030FB006E30FA000030FD00253091
:103F1000FC000830FE00B5260030FB002530FA001A
:103F20000030FD006630FC000830FE00B526332668
:103F30002030F6001E30F7008E260030FB002730C0
:103F4000FA000030FD006E30FC000830FE00B5269F
:103F50003326F601F701BC2F1E307702031DB22F66
:103F600020307602031CBB2FF71BBB2F0430FA0056
:103F7000DB269831BC2F33262030F6070318F70ACA
:103F8000002F7A3021009900DF308C00FF308E0046
:103F9000951322009D01B03023009D0008309F0042
:103FA0001F309B008C018E01103024008C002926CC
:103FB00020000C1EED269E31202E08009831C12FC6
:020000040001F9
:02000E00A4FF4D
:02001000FFDE11
:00000001FF
