:020000040000FA
:080000009E31252E00000000D6
:0C3C40008A01000000008A018200FC2FB5
:0E3C5200FB08031D2D2E0800F93000000000B5
:103C60000000000000000000000000000000000054
:103C700000000000FF3E031D2E2E0000000000008B
:103C80000000000000000000000000000000000034
:103C900000000000FB0B2D2E0800E0307605FA0036
:103CA0007A08230091007708FA007A089200151329
:103CB00095171516151555309600AA3096009514CF
:103CC000000000009516F801403078020318852E98
:103CD000003085002030840005308407780A84078E
:103CE000000893002030840005308407780884079A
:103CF0000008940055309600AA30960095140000F4
:103D00000000910A0230F807642E9512E030760523
:103D1000FA007A0891007708FA007A0892002000E9
:103D20002608230093002000250823009400553026
:103D30009600AA30960095140000000015110800A6
:103D400022000C158E116430FB0029260C118E15F3
:103D50006430FB002926A02E230015139517760842
:103D600091007708FA007A089200F8014030780252
:103D700003180800151400000000003085002030F2
:103D800084000530840778088407140880002030F8
:103D9000840005308407780A840713088000910A9C
:103DA0000230F807B62E7A082100A0007B08A10097
:103DB0007C08A2007D08A3007E08003C0318F42EB6
:103DC0002308850022088400A20A0319A30A000818
:103DD000FF002108850020088400A00A0319A10A19
:103DE0007F088000FE03DC2E7A08A4007B08A50073
:103DF000080022000C11F8017A08780203180A2F33
:103E00008E15C830FB0029268E11C830FB002926EC
:103E1000F80AFC2EFF30FB002926FB2E0130F900AA
:103E2000F601F701AC260030FB006630FA000030E6
:103E3000FD002530FC000830FE00D32622000C15C2
:103E40008E15F801463078020318382F2000911A99
:103E50002A2F262F0030FB002030FA007B08850037
:103E60007A0878078400230019088000F80A222FB6
:103E7000FA0122000C1DFA0A7A180C157A1C0C1192
:103E800020002008F03A031D542FA108031D542FD1
:103E900022087F3A031D542F2308123A031D542F82
:103EA0006508F73A0319572F0230FA00F926200067
:103EB000A40898310319A026790820002406983117
:103EC0000319652F0330FA00F926F90A79087F3CB7
:103ED000983103186D2F0130F900F8014030780255
:103EE0000318972F003085002030840005308407A8
:103EF000780884070008FA00FA0DFA0DFA0DFA0D99
:103F0000FA0DFA0DFA0D8030FA05203084000530E4
:103F10008407780A84077A088004203084000530FA
:103F200084077808840780360230F8076E2FF60879
:103F3000031DC82FF708031DC82F0030FB006E308B
:103F4000FA000030FD002530FC000830FE00D326CA
:103F50000030FB002530FA000030FD006630FC0028
:103F60000830FE00D3264D262030F6001E30F70024
:103F7000AC260030FB002730FA000030FD006E3028
:103F8000FC000830FE00D3264D26F601F701D82F9D
:103F90001E307702031DCE2F20307602031CD72F50
:103FA000F71BD72F0430FA00F9269831D82F4D2669
:103FB0002030F6070318F70A212F7A3021009900E4
:103FC000B03023009D0008309F001F309B00FB3065
:103FD00021008C00F7308E0023008E012030240059
:103FE0008C00210095130A30FB00292620008C1E2E
:0C3FF0000E279E31202E08009831DD2F96
:020000040001F9
:02000E00A4FF4D
:02001000FFDE11
:00000001FF
