:060000009D31562D8031F8
:043A80009D31562DF1
:103AAC0040019F316C2F640080010131890B5A2D2C
:103ABC000034400198161A100530F1000F30F00058
:103ACC00F130890B672DF00B672DF10B672D000082
:103ADC00400198121A140530F1000F30F000F1304B
:103AEC00890B762DF00B762DF10B762D0000410114
:103AFC005F2DF7007008F3007308F6007708F300E9
:103B0C007308F5000130F1020030F23B710A031921
:103B1C00720A031908007608860087010108F30071
:103B2C007308F4000130F3007308F6077408F3000F
:103B3C00750886008701730881000130F300730853
:103B4C00F507882D50011E134001200850019A00E2
:103B5C004001210850019B00FD0140307D020318FB
:103B6C0008001E141D08F0007D08A53E8600870184
:103B7C00700881001C08F0007D08A63E86008701B5
:103B8C00700881000130F00070089A070230F000D4
:103B9C007008FD07B32DDF309200FF309300EE303C
:103BAC00940098019A017E01B801C301CE01103036
:103BBC00B9008030C400C830CF000F30A4001530DD
:103BCC007D01CB00083042019F009C013F309B00DF
:103BDC00B0309D000530FC000F30FB00F130890B3C
:103BEC00F52DFB0BF52DFC0BF52D000040018E1D6A
:103BFC000C1A022E9E318326402D9D31562DF2003B
:103C0C0040019812FD0172087D0203182E2E40010E
:103C1C001A140930F1001E30F000E430890B142E18
:103C2C00F00B142EF10B142E003240011A10093037
:103C3C00F1001E30F000E430890B222EF00B222E06
:103C4C00F10B222E00320130F0007008FD07092E16
:103C5C001530F1004B30F000BE30890B332EF00BD9
:103C6C00332EF10B332E0032082E40012008E039A0
:103C7C0050019A004001210850019B001E131E1692
:103C8C001E1555309F00AA309F009E141E12400135
:103C9C002008E03950019A004001210850019B0096
:103CAC00FD0140307D020318812E3E307D02031849
:103CBC00622E50019E16642E50019E127D08A63E67
:103CCC008600870101089C007D08A53E86008701BF
:103CDC0001089D0055309F00AA309F009E140130B2
:103CEC00F00070089A070230F0007008FD074030B1
:103CFC007D02031C5B2E1E110800A201A20AA0016A
:103D0C00A1019D31A8259E31A530F8007808F0005E
:103D1C000830F1000030F2002B309D317F259E31B0
:103D2C00400198161A14FD0146307D020318B72E77
:103D3C004E018F1E9E2E42011908F8007808FA00D9
:103D4C007A08F8007D08A03E86008701780881007B
:103D5C00FE307A0603199A2E0130F8007808FD0718
:103D6C009A2E03104001981E0314031CC02E400110
:103D7C009816C22E40019812F03041012006031D06
:103D8C00D62E2108031DD62E7F302206031DD62EDB
:103D9C0025302306031DD62EF73065060319DA2EBF
:103DAC0002309E3105269E3141012408031DE12E6F
:103DBC009D315F259E3141012408400122060319E3
:103DCC00EB2E03309E3105269E310130F800780829
:103DDC004001A20780302202031CF62EA201A20A87
:103DEC00FD0140307D020318192F7D08A53E860089
:103DFC0087010108F8000630F835FF3E031D022F3D
:103E0C007835F9007D08A63E860087017908810483
:103E1C007D08A53E860087010310810C0230F80056
:103E2C007808FD07F72E20082104031D532FA53019
:103E3C00F8007808F0000830F1000030F200233070
:103E4C009D317F259E312B30F8007808F00008302A
:103E5C00F1000030F200A5309D317F259E319E315E
:103E6C003B269E3140304001A0001D30A1009D3109
:103E7C00A8259E312330F8007808F0000830F100B6
:103E8C000030F200A5309D317F259E319E313B26BE
:103E9C009E314001A001A101662F2108803AF80053
:103EAC009D307802031D5C2F40302002031C632FD1
:103EBC0004309E3105269E31662F9E313B269E3165
:103ECC0020304001A0070030A13D992EFD0120308B
:103EDC0084000030850013309D3159259F31A0306E
:103EEC0084000030850046309D31592540019D31BC
:023EFC00D12DC6
:020000040001F9
:08000000FF3FFF3FFF3FFF3F00
:0A000E009C3FFE3F9F3FFF1FFF3F96
:00000001FF
